:020000040800F2
:10000000302F002069020008710200088D3F0008AF
:10001000750200087702000879020008000000005D
:10002000000000000000000000000000E17D00086A
:100030007D02000800000000E15600081D7E000857
:10004000830200088302000883020008830200087C
:10005000830200088302000883020008830200086C
:10006000830200088302000883020008830200085C
:10007000830200088302000883020008830200084C
:10008000B10E000883020008510500088302000831
:10009000830200088302000883020008830200082C
:1000A0003983000891830008830200088302000856
:1000B00083020008AD830008830200088302000861
:1000C00083020008830200088302000883020008FC
:1000D0008302000883020008B99500088302000823
:1000E000FD11000883020008830200088302000853
:1000F00083020008830200088302000883020008CC
:1001000083020008830200088302000883020008BB
:100110008302000883020008D983000883020008D4
:10012000830200088302000883020008830200089B
:10013000830200088302000883020008830200088B
:10014000830200088302000883020008830200087B
:10015000830200088302000883020008830200086B
:10016000830200088302000883020008830200085B
:1001700083020008830200088302000800000000D8
:10018000830200088302000800F002F800F05CF827
:100190000AA090E8000C82448344AAF10107DA45E2
:1001A00001D100F051F8AFF2090EBAE80F0013F0D8
:1001B000010F18BFFB1A43F00103184728B10000D4
:1001C00048B100000A444FF0000C10F8013B13F056
:1001D000070408BF10F8014B1D1108BF10F8015BA0
:1001E000641E05D010F8016B641E01F8016BF9D193
:1001F00013F0080F1EBF10F8014BAD1C0C1B09D1EA
:100200006D1E58BF01F801CBFAD505E014F8016B5B
:1002100001F8016B6D1EF9D59142D6D370470000ED
:100220000023002400250026103A28BF78C1FBD8FF
:10023000520728BF30C148BF0B6070471FB50AF096
:10024000F4FD1FBD10B510BD00F047F91146FFF7D2
:10025000F5FF09F015FB00F065F903B4FFF7F2FFB5
:1002600003BC00F06DF900000948804709480047C9
:10027000FEE7FEE7FEE7FEE7FEE7FEE7FEE7FEE756
:10028000FEE7FEE704480549054A064B70470000B3
:100290004D7E00088901000830290020302F002001
:1002A000302B0020302B002053EA020C00F0698034
:1002B0002DE9F04B4FF00006002B1FBFB3FA83F57A
:1002C00003FA05F424FA05F65E4012BF1643B2FAAB
:1002D00082F502FA05F4C5F120051EBF22FA05FCDD
:1002E00044EA0C04203556EA044C4FEA144418BF83
:1002F000641C4FF000084FF00009904271EB030CB2
:1003000039D3002919BFB1FA81F701FA07F6B0FA1B
:1003100080F700FA07F6C7F120071EBF20FA07FC96
:1003200046EA0C062037B6FBF4FCA7EB0507103FA6
:1003300007F01F0BCBF120062CFA06F60CFA0BFB8C
:1003400044BFB3460026202FA4BF5E464FF0000BEB
:100350005BEA060C08BF4FF0010B19EB0B0948EBE9
:100360000608ABFB027C06FB02CC0BFB03CCC01BDC
:1003700071EB0C01C1E70B46024641464846BDE819
:10038000F08B13B5084318BF4FF0FF300146AFF3B1
:100390000080BDE81C407047032A40F2308010F016
:1003A000030C00F0158011F8013BBCF1020F624410
:1003B00098BF11F801CB00F8013B38BF11F8013BA1
:1003C000A2F1040298BF00F801CB38BF00F8013B4E
:1003D00011F0030300F02580083AC0F0088051F8BE
:1003E000043B083A51F804CBA0E80810F5E7121DC9
:1003F0005CBF51F8043B40F8043BAFF30080D207E8
:1004000024BF11F8013B11F801CB48BF11F8012BB3
:1004100024BF00F8013B00F801CB48BF00F8012BD6
:10042000704710B5203AC0F00B80B1E81850A0E832
:100430001850B1E81850A0E81850203ABFF4F5AFB2
:100440005FEA027C24BFB1E81850A0E8185044BF0E
:1004500018C918C0BDE810405FEA827C24BF51F87B
:10046000043B40F8043B08BF7047D20728BF31F86F
:10047000023B48BF11F8012B28BF20F8023B48BFC0
:1004800000F8012B70474FF0000200B51346944668
:100490009646203922BFA0E80C50A0E80C50B1F1DC
:1004A0002001BFF4F7AF090728BFA0E80C5048BFF0
:1004B0000CC05DF804EB890028BF40F8042B08BF8E
:1004C000704748BF20F8022B11F0804F18BF00F88A
:1004D000012B7047704770477047754600F02CF845
:1004E000AE4605006946534620F00700854618B021
:1004F00020B5FFF7C7FEBDE820404FF000064FF0E3
:1005000000074FF000084FF0000BAC46ACE8C00904
:10051000ACE8C009ACE8C009ACE8C00921F00701AB
:100520008D46704710B50446AFF300802046BDE805
:100530001040FFF792BE00000048704758040020AA
:1005400001491820ABBEFEE72600020070470000FC
:100550000020C5F204000168490644BF4021016043
:1005600008F06AB880B503464FF0000E4069D3F832
:1005700054C003F11C01042283F865E0BDE880400B
:100580006047000010B5044690F86500012819D0B6
:10059000002818BF10BDE0694AF6AB62C1B2C0F6D0
:1005A0000002515CC0F307235940515CC0F307437C
:1005B0005940515C81EA1061515C59B1042084F8C2
:1005C000620010BD002084F86500012084F86100FD
:1005D00010BD00BF00F00F014A1F022AA16603D21E
:1005E000012084F8610010BD09290DD1C0F30B1260
:1005F000002AA4F85C20F3D0B4F85E00824207D948
:10060000022084F8620010BD012084F8620010BD51
:1006100094F86C30D4E90501D4F854C002EB4302DD
:10062000E047012084F8650010BD000010B50446C5
:1006300090F82400032807D194F82E000021022806
:1006400084F8241007D01FE0A16C00228A7194F86E
:100650002E1002290AD154F8281F236B54F8140CC9
:10066000A288246298470320A07110BD02280BD1F4
:100670006069A36D04F120010422A164984703205E
:1006800084F8240010BD00BFEFF3108072B6636CD5
:10069000E3B16069D4F858E019689A884FF0030C08
:1006A000A36483F806C0F04794F83600022803D00C
:1006B00094F83E0002280DD104F13000616C204412
:1006C000401A3830606462B610BD00BF0020A064DC
:1006D00062B610BD0020606462B610BD2DE9F04F17
:1006E00081B00546044655F81C0F002695F84520B4
:1006F0000E80002A00F07C8094F8642084F8616009
:10070000022A00F0A180012A00F01E81002A40F098
:100710009D82A16E062900F0E181052940F0188232
:1007200094F86C20C0F3C01194F86D70C0F3052BE1
:1007300094F86E908A420A46C0F3863894F86FE0C7
:1007400038BF00225F45DA46C0F3465C84F86C206F
:1007500038BFBA46C845434684F86DA088BF4B46AB
:10076000F445664684F86E3088BF7646914284F838
:100770006F6006D15F4504D3C84598BFF44540F289
:100780006F8294F870004AF6AB67000140EAC2102D
:1007900040EA0A2040EA833040EA46514A1DD3B27B
:1007A000C0F60007FB5CC0F307205840385CC1F37B
:1007B00007435840385CC1F3036148404BF2A00145
:1007C000C0F60001085C214642EA007041F8200FA3
:1007D000EFF3108072B6886A002800F01B8262B6C0
:1007E00094F82400002800F0F98100262EE200BFD2
:1007F00094F86200002800F019814AF6AB6280F09C
:100800000901C0F60002515C00EB00234840105C77
:100810004BF2A001C0F60001085C190241EA007029
:100820000F30214641F8200FEFF3108072B6886A2E
:10083000002800F0018162B694F82400002804BF6B
:10084000022084F8240000E1A26E092A00F08481CD
:10085000062A00F08D81052A40F0C68194F86C309C
:10086000C0F3C01194F86D70C0F3052294F86EA027
:100870008B428C46C0F3863994F86F8038BF4FF0B6
:10088000000C97429346C0F3465E84F86CC038BFB4
:10089000BB46D1454E4684F86DB088BF5646C64526
:1008A000734684F86E6088BF434661454FF000018F
:1008B00084F86F300FD197420DD3D1454FF000012E
:1008C00098BFC64507D894F87010C0F30210401ABC
:1008D000B0FA80F0410994F870004AF6AB67000165
:1008E00040EACC1040EA0B2040EA86300E4640EA4F
:1008F00043514A1DD3B2C0F60007FB5CC0F307208A
:100900005840385CC1F307435840385CC1F3036179
:1009100048404BF2A001C0F60001085C214642EAC3
:10092000007041F8200F81F84460EFF3108072B638
:10093000886A002800F07A8162B694F824000028C2
:1009400000F04C81002681E1A16E062900F088802C
:10095000052940F0FF8094F86C10C0F3C01294F8A1
:100960006D70C0F3052A94F86E9091421146C0F361
:10097000863894F86FE038BF00215745D346C0F35E
:10098000465C84F86C1038BFBB46C845434684F8C3
:100990006DB088BF4B46F445664684F86E3088BF1C
:1009A00076468A4284F86F6006D1574504D3C8451D
:1009B00098BFF44540F26A8194F87070002084F882
:1009C0006400380140EAC11040EA0B2040EA83305D
:1009D00040EA46514A1D4AF6AB67D3B2C0F600075B
:1009E000FB5CC0F307205840385CC1F30743584014
:1009F000385CC1F3036148404BF2A001C0F600012E
:100A0000085C214642EA007041F8200FEFF31080A5
:100A100072B6886A002800F0E98062B694F8240073
:100A2000002800F0DB80002610E100BF00263046E1
:100A300001B000F033B900BF032084F82400A164A2
:100A400062B66069A36D042298476069216D002633
:100A500084F862608847304601B000F01FB900BFDB
:100A600094F8601094F8632001F001018B01C0F349
:100A70000F3743EA073302F00F0243EAC11141EA9C
:100A8000022101F136024AF6AB66D3B2C0F6000687
:100A9000F35CC1F307215940715CC0F30740484043
:100AA000305C4BF2A00180EA1730C0F60001085C10
:100AB000214642EA007041F8200FEFF3108072B631
:100AC000886A002800F0988062B694F82400002814
:100AD00004BF022084F8240097E000BF94F860105F
:100AE00094F8632001F001018B01C0F30F3743EA52
:100AF000073302F00F0243EAC11141EA02218A1DC5
:100B00004AF6AB66D3B2C0F60006F35CC1F3072128
:100B10005940715CC0F307404840305C4BF2A00183
:100B200080EA1730C0F60001085C214642EA0070F6
:100B300041F8200FEFF3108072B6886A002800F0A9
:100B40006F8062B694F82400002847D000267DE02C
:100B500000267BE0002679E094F86000B4F85C2081
:100B60000130A66984F8600001200A8020746DE0DD
:100B700094F86010607F01F0010194F863208B010C
:100B800043EA003302F00F0243EAC11141EA0221B5
:100B900001F136024AF6AB67D3B2C0F60007FB5C40
:100BA000C1F307215940795C81EA1010385C4BF29F
:100BB000A001C0F60001085C214642EA007041F83D
:100BC000200FEFF3108072B6886A002834D062B626
:100BD00094F8240010B1002638E000BF022084F809
:100BE0002400002632E000BF00262FE0032084F816
:100BF0002400A16462B624E0032084F82400A164E8
:100C000062B66069A36D04229847022084F86400EC
:100C100000261BE0032084F82400A16462B610E0E3
:100C2000032084F82400A16462B60AE0032084F85B
:100C30002400A16462B604E0032084F82400A164C7
:100C400062B66069A36D0422984700266069636DEF
:100C5000294604229847304601B000F01FB800BF73
:100C600094F87010C0F3021088427FF48AAD2020FF
:100C700000EB431100EB4A10A181B101A4F85E0022
:100C80000120E18184F864007BE500BF94F8707076
:100C9000C0F30210B8427FF48FAE92E630BCBDE8DC
:100CA000C08F000070B5D2F800C04AF6AB665FFA9C
:100CB0008CFEC0F6000616F80E40CCF30725654002
:100CC000755DCCF307446540765DCCF303656E40FB
:100CD0004BF2A005C0F60005AE5D4CEA0676166044
:100CE000EFF3108672B6866CC6B162B6F1B10A290E
:100CF00026D0092920D1D0F840C0466CDCF800107D
:100D0000891A18BF0321002E08BFC0F844C0022072
:100D10008CF80600C8B2ACF8043070BD0A291FD0A8
:100D2000092923D1016C03268E7124E090F8241048
:100D300091B9022180F824100021C8B270BD00BF13
:100D400090F82E10012907D1022180F82E108385FA
:100D50000021C8B270BD00BF0321C8B270BD00BF82
:100D6000032600F1280180F82E6004E000F1200144
:100D7000032680F82460816462B64169866D084666
:100D800011461A46B0470021C8B270BD0A2A0DD1DB
:100D900090F82E20012A84BF00207047826A043216
:100DA0000A60012280F82E201046704790F8362005
:100DB000022A0DD390F83E20012A84BF00207047FC
:100DC0000122836B00F1380C80F83E2006E000BF62
:100DD000036B00F1300C012280F83620C0F840C0CF
:100DE000181D08601046704710B590F864C0BCF13B
:100DF000020F1CBF022010BD90F86C4043EA021E97
:100E00008C46012C4CF804ED02BF4FF6CA648C529C
:100E100002320A2B03D1017C61B100210174111D42
:100E20001FFA81FE194662467346BDE81040FFF77F
:100E300039BF00BF012010BD10B504464069E16C08
:100E400088474FF0000C6069636DA4F864C004F13A
:100E50001C01042284F860C0BDE81040184700005F
:100E6000B0B5028811FB01F3524311FB31339342B9
:100E70000ED9448811FB31F304FB04F083424FEA9E
:100E8000014509D9002948BF6442101A06E000BF95
:100E90000C0CC1EA0440B0BD0C14D01A03F066FA81
:100EA0000146002D48BF4942C1EA0440B0BD0000E0
:100EB0000021C4F202010868800258BF704740F266
:100EC000BC304FF40012C2F200004A60FFF75ABB78
:100ED00010B50446808988B101380104A0811CBF87
:100EE000002010BDB4F91400217E90FBF1F1A06840
:100EF00009B200F06FF90120A07310BD012010BDF0
:100F000080E80E000021C18170470000807B70479F
:100F1000C173704710B5044640680021002208F0F4
:100F20005DFC6068B4F9141008F0A2FC206804218C
:100F300006F04CFF20680021002206F0C9FE206860
:100F4000B4F91210E28A06F0C3FEE08A218A48430F
:100F500044F6D351C1F26201A0FB0101012000EB74
:100F60009110A08110BD00000146006A406A8A6E9F
:100F700080B250434B78020CB1F806C0CA8010FB17
:100F800023F28B68CCEB204003FA80F310B28A8006
:100F90008B6070472DE9F04F076A90F87480FB680A
:100FA000002523F00103FB60D7F824A0B0F870609F
:100FB000A0F8705083463D68BAF1FF3FDCBF6FF088
:100FC00001003861F8684FEADA7440F001003444F7
:100FD000B4F5006FF86084BF01208BF87D0005F048
:100FE0001005BBF872602AF0004C3DB9BBF86EE00A
:100FF000ACEB060004FB0E0406E000BFBBF86EE09D
:1010000004FB0E60ACEB00049BF87C00B8F1000F11
:101010000BEB8000846209D0A8F10100032808F0DE
:10102000030907D20026002416E000BF0025002493
:1010300024E000BF08F0FC07002600240BEB86002C
:10104000D0E90A53D0E90C202C4423441A44043636
:10105000B74200EB0204F1D1B9F1000F0DD00BEB58
:101060008606B06AB9F1010F044406D0F06AB9F1FE
:10107000020F04441CBF306B04444546DBF82400D7
:1010800005FB0EF600FB04F7002E18BF97FBF6F7E2
:101090000F80BBF80C00ABF80C70381AABF81200DC
:1010A0009BF87C00BBF86C200BEB8000806ABBF8DF
:1010B0006E3050439BF80120504390FBF3F0DBF877
:1010C0001C20BBF81A30504390FBF3F0ABF80E0035
:1010D0004FF6FF70844528BF4FF0FF3AABF872A07F
:1010E0009BF87C0001308BF87C009BF87C0040452D
:1010F00024BF00208BF87C009BF87D0050B10020BD
:101100009BF803108BF8750000208BF8001000F09E
:1011100006B800BF584600F005B806F07BBD30BCED
:10112000BDE8C08F30BCBDE8C04FFFF7F6BF000080
:1011300010B590F87410044621B104F1280089001C
:10114000FFF7A1F9012084F8750010BD0146B0F841
:101150007000421C0020A1F87020704780B5016A21
:101160004FF0FF330A6842F400620A6000224A62CC
:10117000B0F86E20B3FBF2F2B0F86C30826603EB8D
:10118000830252004262B0F87A208B6923F0F003A8
:101190001A438A61D0F878C08B696FF0FF0223F49C
:1011A000704302EA1C221A438A616FF001020A614D
:1011B000CA6842F00102CA600A6842F001020A608D
:1011C00090F87410002908BF80BD28308900FFF70F
:1011D0005AF980BD01EBD132B0F86E3092B25A4369
:1011E00048F20103C8F20003A2FB03234278C18046
:1011F0005143026A8180D80B5062704740F214401C
:10120000C4F201000168890458BF70474FF40051CF
:10121000016008F0C5B90000EFF3108072B600BF9E
:10122000FEE7000010B540F20C51C2F20001262288
:1012300010FB021494F83810002918BF10BD40F2BA
:101240004041C2F2000151F8200006F00FFD608617
:10125000A08410BDB0B540F20C550446C2F20005A2
:10126000262014FB005140F23840C2F20000002258
:1012700050F824004A618A610A624A62C1F82A2051
:10128000C1F82E20C1F83220002103F0EFFF40F218
:101290003440C2F2000050F82400002103F0E6FFC1
:1012A00040F24040C2F2000050F8240006F008FD71
:1012B00005EB8400806804F00BFA05F13C00214640
:1012C000BDE8B04003F028BD7047000000688168A9
:1012D000826801F0040102F0080289181CBF012095
:1012E0007047C1684FF6FF72C7F6DF72114001F117
:1012F0000041C160002070472DE9F04181B000221B
:10130000009290F85020012A06D14FF0020C60465E
:1013100001B0BDE8F08100BF0269012380F85030C0
:1013200012B18D69012D19D14A68082A3ED10A6887
:101330000B6A4FF4F85505EA924223B14D6A03F067
:101340003C032B431A43036842F20004DD6CC8F2ED
:10135000082425401543DD64C26527E0046E1CB1F6
:10136000D0F85CC000220AE00B6A6A1E23B103F0C9
:101370003C034C6A1A4322434FF0000C2C46D1E93F
:10138000003505F01F05C3F38463AB401A43631EA9
:1013900042EA0C02C0E9172308D1036842F20004B4
:1013A000DD6CC8F2082425402A43DA64D0F80080B6
:1013B000D8F80820120711D4D8F80C204D7F8C7F64
:1013C00022F44012002D4FEA445501D02A4303E095
:1013D0000C7F2A4342EA0452C8F80C20D8F80820AF
:1013E000D8F8085002F0040205F00805521915D18A
:1013F0000A6ABAB14A6AAAB14A7F012A1AD1426D71
:101400004FF0010C42F02002426591F82850D8F8C4
:101410001020012D1CD022F0020221E04FF0000C20
:10142000BEE000BF4D7FD8F80C20012D04D142F062
:10143000007203E0D8F80C2022F000724FF0000C8C
:10144000C8F80C2091F82850D8F81020012DE2D1CE
:10145000D1E90B5422F4FF722A43224342F00202E4
:10146000C8F810200A68D1F808E0C2F3406408EB1D
:1014700084046569C2F3045207269640B5430EFA08
:1014800002F22A436261D1E90425D8F80C40042A0B
:1014900070D1D8F86020D8F860200C68C2F3846658
:1014A00094FAA4F52246B5FA85F5C4F3846E6FF379
:1014B000DF422C46002A08BF7446A6424FF6FF744E
:1014C000C0F207040ED1D8F8602022F00042C8F81C
:1014D00060200D6805EA0402C5F3846E95FAA5F54F
:1014E000B5FA85F5D8F86460D8F86460002AC6F3C8
:1014F00084662F4608BF7746BE420ED1D8F86420D6
:1015000022F00042C8F864200D6805EA0402C5F321
:10151000846E95FAA5F5B5FA85F5D8F86860D8F81F
:101520006860002AC6F384662F4608BF7746BE422D
:101530000ED1D8F8682022F00042C8F868200D6863
:1015400005EA040295FAA5F4C5F3846EB4FA84F5AD
:10155000D8F86C40D8F86C40002AC4F3846408BF03
:101560007546AC421CD1D8F86C2022F00042C8F875
:101570006C2015E0062606EA940605FA06FE0D68BC
:1015800008EB8202146E4FF20006C0F2FF3605F03F
:10159000F84534404EEA0506264346F000461666F6
:1015A000D8F80820D2074FD10D68CF684FF6FF73E7
:1015B000D8F8B0602A4607F01804C0F207036FF3AA
:1015C000DF42E34096432B4033430026C4F27F06BC
:1015D000B742C8F8B03037D192B195FAA5F2B2FA55
:1015E00082F2013202F01E03092B02F01F0210D812
:1015F0000123934002EB420243EA025215E000BF8E
:10160000012202EB956202F01E030A2B02F01F0278
:10161000EED301230027934002EB4202CFF620676E
:1016200007EB02521A4342F00072C2F3406708EB24
:1016300087078B687E69C2F3045207259540AE4345
:1016400003FA02F232437A610D680021C8F2080100
:101650000D426FD040F20831C5F204010C6800223F
:10166000CCF25272954204F0E07208BF14F4000309
:1016700016D00023CCF684339D4208BF14F080734B
:1016800048D00123C8F200039D4208BF14F4800330
:1016900050D1A1F5427398454CD14FF4800343E0FB
:1016A00040F2002748F40073C5F20407BB4241D161
:1016B0000B6823F0E0731A4342F400020A6040F220
:1016C0003031C2F20001096842F663528909C0F262
:1016D0003E52A1FB0212910901EB4101182202EBDB
:1016E00081010091009929B3009901390091009975
:1016F00001B30099013900910099D9B100990139DC
:1017000000910099B1B10099013900910099002927
:10171000EAD10FE040F2002748F40073C5F2040755
:10172000BB4207D14FF080730F6827F0E0773A4350
:101730001A430A60002180F85010604601B0BDE8ED
:10174000F081000070B582B090F85020012A03D1DA
:101750000221084602B070BD002340F20832019316
:101760000093C5F204020368A2F54274A3422FD18C
:101770004FF6006E4FF60055CFF6FF7ECFF6FF75A1
:1017800052F80E40535923435B0721D4D1F800C0CF
:101790001368BCF1000F23F4604425D04B6890F827
:1017A0003060234343EA46331360535952F80E60C6
:1017B0006FF0FF05555933432B43DB0726D11368E0
:1017C000896840F61F76B34341EA0C0119431AE0D9
:1017D000416D41F0200141650121002280F8502037
:1017E000084602B070BD00BF1460515952F80E3067
:1017F0006FF0FF06965919433143C90708D11168A4
:1018000040F61F73994311600021E6E70021E4E7E9
:101810000021E2E7F0B581B00022009290F850205C
:10182000012A03D10221084601B0F0BD0123076857
:1018300080F85030BB685B0700F19A804B68052B3D
:1018400006D8023B032B9ABFCEA454F823300623BC
:10185000C3F3012207EB82020C68156B03F01F0330
:101860001F269E4025EA0606C4F3846505FA03F3A5
:1018700033431363BA68BB6802F0040203F0080341
:10188000D21840F090800A688B68C2F3406607EB7C
:1018900086067569C2F3045207249440A54303FAEF
:1018A00002F22A437261D1E9043CFC68042B65D141
:1018B0003A6E3A6E0B68C2F3846293FAA3F6C3F3EE
:1018C000846C6FF3DF43B6FA86F5002B2C464FF697
:1018D000FF7E08BF6446A242C0F2070E0CD13A6EEA
:1018E00022F000423A660A6802EA0E03C2F3846CF0
:1018F00092FAA2F2B2FA82F57A6E7A6E002BC2F3F5
:1019000084622C4608BF6446A2420CD17A6E22F053
:1019100000427A660A6802EA0E03C2F3846C92FA05
:10192000A2F2B2FA82F5BA6EBA6E002BC2F38462EA
:101930002C4608BF6446A2420CD1BA6E22F0004287
:10194000BA660A6802EA0E03C2F3846C92FAA2F243
:10195000B2FA82F5FA6EFA6E002BC2F3846208BF07
:101960006546AA421FD1FA6E22F00042FA661AE0DA
:10197000416D41F0200141650121FCE006220E6825
:1019800007EB830302EA94021D6E4FF200040CFA87
:1019900002F2C0F2FF3406F0F846254032432A43F3
:1019A00042F000421A66BA68D20750D10C68CA6881
:1019B000D7F8B06023466FF3DF4326EA030C4FF6F7
:1019C000FF7602F01805C0F20706EE40002526401B
:1019D000C4F27F0546EA0C06AA42C7F8B06036D1C9
:1019E00093B194FAA4F2B2FA82F2013202F01E0329
:1019F000092B02F01F0310D801229A4003EB430386
:101A000042EA035315E000BF012202EB946202F0A8
:101A10001E030A2B02F01F03EED3012200269A4078
:101A200003EB4303CFF6206606EB03531A4342F061
:101A30000073C3F3406607EB86068A687569C3F3D3
:101A4000045307249C40A5439A402A4372610968C5
:101A50000022C8F2080211422ED040F2083CC5F222
:101A6000040CDCF800300022CCF25272914203F0F8
:101A7000E07408BF13F4000220D00022CCF68432B8
:101A8000914208BF13F0807256D00122C8F20002C2
:101A900091424FF0000108BF13F480026BD1ACF506
:101AA0004272974267D1DCF8001021F0E0712143C7
:101AB00041F480014FE000BF00215CE040F20022D1
:101AC00047F40071C5F20402914249D1DCF80010DC
:101AD00042F6635221F0E071214341F40001CCF859
:101AE000001040F23031C2F200010968C0F23E52EB
:101AF0008909A1FB0212910901EB41010C2202EBC1
:101B000081010091009969B3009901390091009910
:101B100061B3009901390091009949B300990139E5
:101B20000091009931B30099013900910099002981
:101B30004FF00001E8D11EE040F2002247F40071AE
:101B4000C5F2040291420FD1DCF8001021F0E071DF
:101B5000214341F08071CCF8001000210BE000BF60
:101B6000002108E0002106E0002104E0002102E05D
:101B7000002100E00021002280F85020084601B03A
:101B8000F0BD00BF0C0000001200000018000000B3
:101B900000010000B0B582B00446002001904CB1B5
:101BA000606D58B121688868800012D48868C000D0
:101BB00019D54CE0012002B0B0BD00BF204600F0B6
:101BC000F1F80020A06584F8500021688868800042
:101BD000ECD588684FF6C072C5F6FF721040886079
:101BE0008868C00033D44FF6C0728868C5F6FF72AB
:101BF00002F18052104000F18050886040F2303095
:101C0000C2F20000006842F663528009C0F23E5200
:101C1000A0FB02029009022202EB40000190019811
:101C2000A8B100BF019801380190019878B10198DE
:101C300001380190019850B1019801380190019844
:101C400028B101980138019001980028EAD18868EC
:101C5000C00009D4606D40F010006065A06D40F0D8
:101C60000100A065012000E000208A68636D02F099
:101C7000040203F01003D218626D79D122F481724C
:101C8000023262658A68D20720D140F2083C4FF6E2
:101C900000534FF60062C5F2040CCFF6FF73CFF687
:101CA000FF725CF803E05CF802206FF0FF035CF861
:101CB000033042EA0E021A43D20707D16268DCF809
:101CC000003023F47C131A43CCF80020627E636B4F
:101CD00043EA4232D4E902C31A4394F8203042EA7C
:101CE0000C02012B42EA034207D1D4F824C000239E
:101CF000CFF6FE7303EB4C431A43A36A33B103F4EC
:101D00007073D4F82CC01A4342EA0C02D1F80CC00C
:101D10004CF20703CFF6F07303EA0C031A43CA60D0
:101D20008A6812072DD494F83030227E5B0094F834
:101D300038C043EA823ECB6844F2020223EA020240
:101D400042EA0E02CA600A69BCF1010F16D140F2E4
:101D5000FD7322EA030CD4E90F32D4E911E543EA1A
:101D60000C031A4342EA0E022A4342F0010207E042
:101D700042F010010120616502B0B0BD22F0010205
:101D80000A6122690B6B012A23F00F0202D1E36979
:101D9000013B1A430A63616D012262F3010161652F
:101DA00002B0B0BD2DE9F041A8B004460020CDE955
:101DB000260001A804308421FEF765FB206800217D
:101DC000C5F20401884203D028B0BDE8F08100BF0D
:101DD0004FF4804001904FF040501F9001A800F058
:101DE00003FB002818BFFFF717FA41F24C00C4F2BA
:101DF0000200016840F2004841F4005101600168AE
:101E0000C4F6000801F4005100910099016823AD67
:101E100041F00401016001680B2601F0040100910A
:101E200000990168002741F001010160016801F09B
:101E3000010100910099016841F002010160006810
:101E4000294600F00200009000981720239008F522
:101E500080602496259700F077F8032423A8D0C04B
:101E60004FF09040294600F06FF823A8D0C04046BC
:101E7000294600F069F828B0BDE8F081002804BFC9
:101E8000012070472DE9F04740F2000CC4F2020C2B
:101E900002684FF6F8310CF5816ECBF6FD71724594
:101EA00038BF01F580614CF6CD431144CCF6CC43EC
:101EB000A1FB03136FF003010CF5806701EA930A9D
:101EC0004FF00203D0E90249D0F810803CBF002750
:101ED000C4F20207C0E9107A80F82530136847F68B
:101EE000F077BB432343D0E9057643EA090343EA8D
:101EF0000803D0E907513B4333432B431943B4F55F
:101F0000804F116015D04FF495640AF01C010F2327
:101F1000724538BFA8245CF804208B409A434CF8E3
:101F2000042042685CF8043002FA01F119434CF8CD
:101F3000041000210122C16380F8252080F82410BC
:101F4000BDE8F047084670472DE9F04F86B041F6EE
:101F50000002C4F600020C6807239042049008BFF8
:101F60000623002C009300F0F18004984FF0000A43
:101F700000F138424FEAB2230098012700264FF0C3
:101F80000008062B38BF1846009003910DE000BFF3
:101F90000C6808F1010834FA07F006F1020607F1AF
:101FA00001070AF1040A00F0D1807D1E012000FA29
:101FB00005F314EA0309EBD0D1F804C00CF0030BCD
:101FC000ABF10104022C1FD2DDF810E04FEA48000B
:101FD000DEF808200290032000FA06F4C868A24345
:101FE000B0401043CEF80800DEF80420E0439A43E6
:101FF000019273468E46CCF300120199029CAA40CE
:10200000114359601BE000BFBBF1030F10D10499CD
:102010004FF0030BCC6A24EA0303CCF3C004AC40BA
:102020002343CB620BFA06F3D8430B4634462BE02E
:10203000032000FA06F3D843049B8E463446D96841
:10204000DEF808200140A2401143BBF1020FD96025
:102050001AD16FF0030101EA550103EB010B0AF0FD
:102060001C030F227146DBF820C002FA03FE0A6946
:102070002CEA0E0C9A4042EA0C02049BCBF820207A
:10208000D1F804C00CF0030B19681CF4403F01EABE
:1020900000010BFA04F040EA0100186003993FF4D4
:1020A00077AF41F26002C4F20202106840F2004EC3
:1020B00040F0010010601068C4F2010E00F0010051
:1020C0000590059825F003004FF6084C7044CFF6B4
:1020D000FF7C50F80C400AF00C020F23934024EAD6
:1020E0000303009C04FA02F21A4340F80C20DEF8C5
:1020F00008004C6840EA090240F20C4CE30258BF69
:1021000020EA0902CEF80820C4F2010CDCF8000035
:10211000A30240EA090258BF20EA0902CCF80020D5
:10212000DEF80400A30340EA090258BF20EA0902CE
:10213000CEF80420DEF80000E30340EA090258BFAD
:1021400020EA0902CEF8002022E700BF06B000F026
:1021500000B830BCBDE8C08F1823002A08BF282370
:10216000C150704742F2D460C2F20000006870476C
:1021700040F2000042F2D461C2F20000C2F200015B
:1021800000780A68104408607047000080B542F289
:102190000000C4F20200016841F480710160032074
:1021A00000F0C4F8002000F009F800281CBF01204E
:1021B00080BD00F061F8002080BD0000B0B586B0A1
:1021C00041F25801C4F202010A68044642F01002CA
:1021D0000A60096801A801F010010191019969469E
:1021E00000F032FC049D002D18BF012500F054FCC6
:1021F0004DF68361A840C4F21B31A0FB01014FF0F2
:10220000FF3000EB914141F6301041F20002C2F282
:102210000000C4F2000240F2E7330025C0E90021CB
:10222000C0E902530561856101F0E8F9054618B17E
:10223000284606B0B0BD00BF41F63010C2F2000023
:1022400001F044FA05460028F2D1362000F032F8B9
:102250000F2C0DD8362021460022002500F03AF838
:1022600040F20400C2F200000460284606B0B0BD8F
:102270000125284606B0B0BD82B041F25800C4F234
:1022800002008168002241F001018160816801F053
:10229000010101910199016841F0805101600068DC
:1022A0000F2100F08050009000986FF0010002B004
:1022B00000F010B8002848BF704700F01F0101224D
:1022C00002FA01F14EF200124009CEF2000242F889
:1022D0002010704710B54EF60C5CCEF2000CDCF806
:1022E0000030C3F3022E8EF00704042C28BF042410
:1022F000BEF103034FF0FF3E0EFA04F438BF002393
:10230000A14399400EFA03F39A43114300F00F02E0
:10231000043A624409010C3200F16043B0F1FF3F1E
:10232000C8BF03F56442117010BD00004EF60C5199
:10233000CEF200010A684FF6FF031A4060F30A224A
:1023400042F0806040F0FD700860704747F2000185
:10235000C4F200010A68B0F5007F02F4C06031D118
:10236000B0F5007F2CD00868012262F34A20086093
:1023700040F23030C2F200000068322250434DF685
:102380008362C4F21B32A0FB0202900C4A69520520
:1023900011D5421C0FD04A6952050CD558B14A6973
:1023A000520508D5012806D04A69520503D50228EE
:1023B000A0F10400EAD14869400544BF03207047FA
:1023C00000207047B0F5806FFAD00868022262F3EF
:1023D0004A2008600020704747F20000C4F2000065
:1023E000006800F4C06070472DE9F04782B00446F1
:1023F000407841F288070007C4F2020730D5606ECA
:102400004FEAB05103290BD8DFE801F002101C2578
:10241000201D002103F052FF064670B91AE000BFEC
:1024200001266078C0060BD51EE000BF04F1200035
:10243000002103F0FBFF064660B16078C00613D4AC
:10244000B2464EE057F87C1C41F4803147F87C1CC2
:1024500001E000BF606E396821F440010843386034
:1024600000266078C006EBD5A06E4FEA30600328E6
:102470000AD8B246DFE800F002102216201D002123
:1024800003F01CFF0DE000BF4FF0010A4FF0010800
:10249000A07880070DD528E004F12000002103F08A
:1024A000C5FF8246BAF1000FD04612D0A07880074F
:1024B0001BD4C2462168C80768D088E057F87C0C56
:1024C000B24640F4803047F87C0CBAF1000FD04699
:1024D000ECD13868A16E20F0407008434FF0000A3C
:1024E0003860B046A0788007E3D557F8300C10F07C
:1024F00080590BD157F8300C40F0805047F8300C21
:1025000057F8300C00F080500190019847F2000518
:10251000C4F20005286840F480702860FFF722FEAE
:10252000064600BF2868C00508D4FFF71BFE801BC5
:102530000228F7D94FF0030A22E000BFBAF1000FDA
:102540001ED1B86810F4407012D0D4F884108842BC
:102550000BD0B868B96820F4407041F48031B9609C
:10256000B96821F48031B960B860C00740F01C81BF
:10257000B868D4F8841020F440700843C246B860AC
:10258000B9F1000F1AD02168C80720D1880726D4D6
:1025900048072CD4080732D4C80638D488063ED45D
:1025A000880544D448054AD4480650D4080656D471
:1025B000C8055CD4880462D473E000BF57F8300CBF
:1025C00020F0805047F8300C2168C807DED038680A
:1025D000A26B20F00300104338608807D8D5386814
:1025E000E26B20F00C00104338604807D2D5386801
:1025F000226C20F03000104338600807CCD53868D2
:10260000626C20F0C00010433860C806C6D5386838
:10261000A26C20F44070104338608806C0D538683A
:10262000E26C20F44060104338608805BAD5386801
:10263000E26D20F44020104338604805B4D5386876
:10264000226E20F44010104338604806AED538683A
:10265000226D20F44050104338600806A8D5386831
:10266000626D20F4404010433860C805A2D5386838
:10267000A26D20F4403010433860880411D53A68C8
:10268000E06E22F040620243B0F1806F3A601DD0EC
:10269000B0F1006F05D157F87C0C40F4801047F87A
:1026A0007C0C080326D53A68206F22F04062024372
:1026B000B0F1806F3A6015D0B0F1006F1AD157F8C1
:1026C0007C0C40F4801047F87C0C13E0201D0121A5
:1026D00003F0F4FD2168002818BF82460803E2D405
:1026E00008E000BF201D012103F0E8FD216800285B
:1026F00018BF8246480311D53A68606F22F04062E5
:102700000243B0F1806F3A601CD0B0F1006F05D188
:1027100057F87C0C40F4801047F87C0C480425D511
:102720003968A06F21F040510143B0F1005F39607A
:1027300014D0B0F1805F19D1201D022103F0BEFD3D
:1027400011E000BF201D012103F0B8FD2168002821
:1027500018BF82464804E3D408E000BF04F120001B
:10276000022103F063FE002818BF8246206801049E
:1027700006D4C0030CD4504602B0BDE8F08700BFB9
:102780003968E26F21F0804111433960C003F2D50E
:102790003868D4F8801020F0004008433860504674
:1027A00002B0BDE8F08700BFFFF7DCFC064641F24F
:1027B00088354FF0030A00BFB86880073FF5D8AEF0
:1027C000FFF7D0FC801BA842F6D9D9E62DE9F043EB
:1027D00081B000286BD042F20008C4F2020804461F
:1027E000D8F800000D4600F0070088420CD2D8F857
:1027F000000020F007002843C8F80000D8F80000C7
:1028000000F00700A84252D1206841F2080910F0F8
:102810000201C4F202090DD0A268D9F8003003F019
:10282000F0039A4206D9D9F8003023F0F0031A4396
:10283000C9F80020C2072DD169B1A168D9F80020DC
:1028400002F0F002914206D2D9F8002022F0F00204
:102850001143C9F80010D8F8001001F00701A9428F
:102860000CD9D8F8001021F007012943C8F800104E
:10287000D8F8001001F00701A94218D141071BD474
:10288000000723D4D9F80000D9F8041010F00C0088
:102890002CD131E0606800285ED0022800F07E80F4
:1028A000032840F0818059F8081C890158D4012080
:1028B00001B0BDE8F08300BFD9F80010E26821F450
:1028C000E0611143C9F800100007DBD5D9F800001A
:1028D000216920F4605040EAC100C9F80000D9F82D
:1028E0000000D9F8041010F00C0005D00C2829D1F4
:1028F00001F00301012925D159F8081C090703D467
:10290000D9F88C10090A02E059F8081C09094BF2A1
:10291000400201F00F01C0F6000252F82110002819
:102920000A4618BF00220C2871D1D9F8040000F023
:102930000300022846D0032804BF41F20021C0F260
:102940007A0143E0042857D008285BD141F20022E5
:10295000C0F27A025BE000BF59F8081C8907A6D5CF
:10296000D9F8001021F003010843C9F80000FFF76F
:10297000F9FB064641F28837D9F80000616800F09B
:102980000C00B0EB810F15D0FFF7ECFB801BB842B9
:10299000F2D9032001B0BDE8F08300BF59F8081C4C
:1029A00089037FF584AFDBE759F8081C49057FF5FB
:1029B0007EAFD5E7206800F0020100297FF43DAF2B
:1029C00049E700BF42F20041C0F2F401D9F8040027
:1029D000D9F80420C0F30210C2F306225143D9F8FB
:1029E00004200130B1FBF0F0C2F34161022202EB9E
:1029F0004101B0FBF1F20AE042F20042C0F2F402FF
:102A000005E000BF002200210C283FF48EAFD9F86A
:102A100000004AF68C61C0F30310C0F60001085CA8
:102A200000F01F0022FA00F140F20400C2F20000A0
:102A300040F230320068C2F20002116001B0BDE81D
:102A4000F043FFF7BBBB00000F22026041F2080217
:102A5000C4F20202136803F003034360136803F037
:102A6000F0038360136803F4E063C36012684FF4FB
:102A7000E06303EAD202026142F20000C4F2020003
:102A8000006800F0070008607047000040F2303036
:102A9000C2F200000068704740F2303041F2080195
:102AA000C2F20000C4F20201006809684AF69C62A2
:102AB000C1F30221C0F60002515C01F01F01C840C1
:102AC0007047000040F2303041F20801C2F20000CD
:102AD000C4F20201006809684AF69C62C1F3C2218F
:102AE000C0F60002515C01F01F01C84070470000B1
:102AF00041F20C01C4F2020151F8040C10F00C0276
:102B0000086805D00C2A29D100F00300012825D13E
:102B100051F80C0C000703D4D1F88800000A02E039
:102B200051F80C0C00094BF2400300F00F00C0F606
:102B3000000353F82030002A184618BF00200C2A42
:102B400018BF7047086800F00300022810D003285F
:102B500004BF41F20023C0F27A030DE0042A1FD023
:102B6000082A23D141F20020C0F27A00704700BF4A
:102B700042F20043C0F2F40308680A68C0F302108E
:102B8000C2F30622096801305A43B2FBF0F0C1F3E8
:102B90004161022202EB4101B0FBF1F0704700BF3E
:102BA00042F20040C0F2F400704700BF0020002352
:102BB000C5E700002DE9F04383B0002800F006834C
:102BC00041F200060446C4F20206B068F1682278B9
:102BD00000F00C09D00601F003081DD42078C007CE
:102BE00000F08180B9F1080F76D0B9F10C0F08BF61
:102BF000B8F1030F70D06068B0F5803F07D0B0F532
:102C0000A02F40F01982306840F480203060306896
:102C100040F4803030601AE2B9F1000F1ED0B9F1F3
:102C20000C0F08BFB8F1010F18D0A1693068002956
:102C300000F0AE8140F001003060FFF793FA0546E6
:102C40003068800700F1B681FFF78CFA401B02283C
:102C50004FF00300F4D903B0BDE8F083306880077B
:102C600003D5A069002800F0B182256A306800070A
:102C700000F11E81D6F89400000900F0F0008542B2
:102C800000F21C813068B9F1000F40F0080030609C
:102C9000306820F0F00040EA050030607068E169BB
:102CA00020F47F4040EA0120706040F07D82B06DEA
:102CB000C00000F11982B06D40F08050B065B06D79
:102CC00000F0805002900298FFF786FBB16D21F072
:102CD0008051B1650AE200BF3068800303D56068A7
:102CE000002800F07382207880072DD5B9F1040FF9
:102CF0001CD0B9F10C0F08BFB8F1020F16D0E16873
:102D00003068002900F0B28140F480703060FFF735
:102D100029FA0546306840050FD4FFF723FA401B17
:102D200002284FF00300F5D995E700BF3068400551
:102D300003D5E068002800F049827068216920F01E
:102D4000F85040EA01607060207800075ED4207877
:102D5000400771D4A06A002800F0E282022840F007
:102D6000DF80F068E16A00F003028A4240F0F08000
:102D7000226B6FF00F0300F0700103EB021291421F
:102D800040F0E680616B00F4FE42B2EB012F40F0B0
:102D9000DF80A16B00F40032073918BF01218A429D
:102DA00040F0D680E26B0023CFF6E07303EB0252D3
:102DB00000F4C0016FF31402914240F0C980216C0D
:102DC0004FF07E4202EB016100F0C06001F07E41F5
:102DD000884240F0BD803068800100F1A1823068F7
:102DE00040F080703060F06840F08070F060FFF775
:102DF000B9F904463068800100F19282FFF7B2F918
:102E0000001B02284FF00300F4D924E76169D6F8CB
:102E1000940000296ED040F00100C6F89400FFF73E
:102E2000A1F90546D6F89400800790D4FFF79AF9E7
:102E3000401B0228F6D9FBE0B06D10F0805808D195
:102E4000B06D40F08050B065B06D00F080500090E3
:102E5000009847F20007C4F200073868C00513D491
:102E6000386840F480703860FFF77CF9054600BF91
:102E70003868C00508D4FFF775F9401B02284FF0E9
:102E80000300F5D9E7E600BFA068012808D00528AF
:102E900040F0B080D6F8900040F00400C6F89000F2
:102EA000D6F8900040F00100C6F89000B1E000BFF5
:102EB000306800F0F00085427FF6E4AEB06DC000EF
:102EC00000F18A80B06D40F08050B065B06D00F0C8
:102ED000805001900198FFF77FFAB16D21F0805189
:102EE000B165B0F5007F00F07D80802D40F2D0808C
:102EF0000320D8E020F00100C6F89400FFF732F973
:102F0000054600BFD6F8940080077FF520AFFFF795
:102F100029F9401B02284FF00300F3D99BE600BFBC
:102F2000B9F10C0F00F05281306820F080703060F1
:102F3000FFF718F9044600BF3068800140F1E480D3
:102F4000FFF710F9001B02284FF00300F4D982E6C6
:102F5000B9F10C0F00F03A81306840015CBF306875
:102F60005FEAC00000F13281306820F0807030608C
:102F7000FFF7F8F805463068800140F18F81FFF7D0
:102F8000F1F8401B02284FF00300F4D963E600BFBC
:102F900020F001003060FFF7E5F805463068800753
:102FA0007FF51CAEFFF7DEF8401B02284FF0030050
:102FB000F4D950E6306840F0080030603068D4E959
:102FC000072120F0F00008433060706820F47F4053
:102FD00040EA0220706001E6FFF7FEF9B0F5007FDD
:102FE0007FF483AF812D5DD30120A02D88BF022007
:102FF00059E000BFD6F89010002821F00101C6F872
:103000009010D6F8901021F00401C6F8901000F04E
:103010008780FFF7A7F8054641F28837D6F8900079
:10302000800700F18F80FFF79DF8401BB842F5D96B
:10303000032003B0BDE8F0833168002821F480311B
:103040003160316821F48021316000F08580FFF724
:1030500089F80546306880033FF545AEFFF782F8F2
:10306000401B64284FF00300F4D9F4E520F480708D
:103070003060FFF777F80546306840057FF564AEAD
:10308000FFF770F8401B02284FF00300F4D9E2E587
:10309000A5F17000B0FA80F04009802D08BF022031
:1030A00001E000BF002042F20001C4F202010A6800
:1030B00022F0070202440A60096801F00701814218
:1030C00040F08480306840F0080030603068D4E917
:1030D000072120F0F00008433060706820F47F4042
:1030E00040EA022070605FE0FFF776F9B0F5007FFC
:1030F00006D1812D40D30120A02D88BF022045E0BC
:10310000802D3BD9032041E0F0684FF6FC71CFF6EB
:10311000EE610840F060002003B0BDE8F08300BF1E
:10312000FFF720F8054641F28837D6F8900080076F
:1031300008D5FFF717F8401BB8424FF00300F4D949
:1031400089E500BFB8F1000F7FF404AEB06D20F048
:103150008050B065FEE500BFFFF704F80546306813
:1031600080037FF5C0ADFEF7FDFF401B64284FF0E4
:103170000300F4D96FE500BF002007E0A5F170005F
:10318000B0FA80F04009802D08BF022042F2000111
:10319000C4F202010A6822F0070202440A600968C8
:1031A00001F00701814211D1B068F16810F00C0004
:1031B00005D00C282AD101F00301012926D131685C
:1031C000090707D4D6F89410090A05E0012003B0D6
:1031D000BDE8F083316809094BF2400201F00F01AC
:1031E000C0F6000252F8211000280A4618BF00223B
:1031F0000C2837D1F06800F00300022810D0032813
:1032000004BF41F20021C0F27A010DE004281FD072
:10321000082823D141F20022C0F27A0222E000BF46
:1032200042F20041C0F2F401F068F268C0F302100B
:10323000C2F306225143F2680130B1FBF0F0C2F351
:103240004161022202EB4101B0FBF1F20AE000BF52
:1032500042F20042C0F2F40204E000BF002200216A
:103260000C28C7D0B0684AF68C61C0F30310C0F6D2
:103270000001085C00F01F0022FA00F140F2040097
:10328000C2F2000040F230320068C2F20002116067
:10329000FEF794FF00287FF4DEAC9FE4F06848F26C
:1032A0008C01CFF69D1104F12C0700EA010C8ECFA2
:1032B000D4E90F546FF00F0040F2000E00EB021043
:1032C000CFF6E07E41EA0C010EEB05554FF07E4251
:1032D00008436FF3140502EB046240EA032002F096
:1032E0007E420EF5F014284304EA47371043384372
:1032F000F060306840F080703060F06840F08070BE
:10330000F060FEF72FFF04463068800108D4FEF716
:1033100029FF001B02284FF00300F5D99BE400BFF2
:10332000002003B0BDE8F083411E0020B0EB116F18
:103330001CBF012070474EF21002CEF20002516015
:103340004EF62351CEF20001F0230B70072190605E
:103350001160704770470000704700007047000020
:1033600010B590F83C20012A04BF022010BDD1E91D
:103370000232D1E900CE22F47C5223F470531A4376
:1033800048F2FF73CFF6F07303EA0E0342EA030E2E
:103390000A692CF477234EEA030C22F476224B6957
:1033A00042EA0C021A438B6A22F4742223F470233B
:1033B00042EA030CD1F818E0046843F20043C4F277
:1033C00001039C424CEA0E4305D042F60042C4F28F
:1033D0000102944210D123F07C7ED1E9073C496A76
:1033E0000022CFF6F04202EA015141EA0E0123F039
:1033F0000072114341EA0C030021636480F83C1021
:10340000084610BDF0B590F83C30012B04BF0220F7
:10341000F0BD13685D1E072D26D828A656F8254056
:103420002EA656F825C035A656F825703BA656F8A8
:1034300025E0022920D001293AD10168082B0D6E20
:10344000566825EA040506FA07F604EA060404EBC2
:10345000050307D0926823EA0C0302FA0EF202EA8F
:103460000C0213440B661DE000244FF0000C0027F3
:103470004FF0000E0229DED10168082B4D6E566810
:1034800025EA040506FA07F604EA060404EB050338
:1034900007D0926823EA0C0302FA0EF202EA0C0249
:1034A00013444B660021002280F83C200846F0BD02
:1034B0000121002280F83C200846F0BD01000000F8
:1034C00002000000000000000400000000000000F6
:1034D00000000000000000000001000000020000E9
:1034E00000040000000000000008000000000000D0
:1034F00000000000000000000000000000000000CC
:1035000001000000000000000200000000000000B8
:10351000000000000000000008000000090000009A
:103520000A000000000000000B0000000000000086
:1035300000000000000000000000000010B590F83E
:103540003C20012A4FF0020255D080F83D2002684D
:1035500043F2004C5368D2F808E0C4F2010C624513
:1035600005D042F60044C4F20104A24203D14C68E3
:1035700023F4700323430C6823F07003234340F6C5
:10358000FF34C4F20004A242536011DD43F2FF3362
:10359000C4F201039A421BDC40F60043C4F200036C
:1035A0009A421DD042F60043C4F201030DE000BF71
:1035B000B2F1804F14D040F20043C4F200039A42AB
:1035C0000ED040F60003C4F200039A4208D00CE08B
:1035D00044F20003C4F201039A4201D0624504D1CF
:1035E00089682EF08003194391600121002280F840
:1035F0003D1080F83C20104610BD0000002804BF9C
:103600000120704710B5044690F83D0028B900200D
:1036100084F83C00204600F023F8022084F83D00A6
:103620002068211D04F0DEFE012084F8480084F8A3
:103630003E0084F83F0084F8400084F8410084F89C
:10364000420084F8430084F8440084F8450084F87C
:10365000460084F8470084F83D00002010BD0000BB
:1036600080B586B0006842F60041C4F2010188428C
:1036700002D006B080BD00BF41F24C00C4F202008F
:10368000416941F400614161416901F400610191C6
:103690000199016841F0020101600068002100F019
:1036A0000200019001984FF4805001900220029096
:1036B00001200390CDE9041040F20040C4F6000060
:1036C00001A9FEF741FC06B080BD000090F83D1056
:1036D00001291CBF01207047022180F83D100168BC
:1036E00040F6FF32C868C4F20002914240F0010087
:1036F000C8600FDD43F2FF30C4F20100814219DCE3
:1037000040F60040C4F2000081421FD042F6004063
:1037100018E000BFB1F1804F18D040F20040C4F271
:103720000000814212D040F60000C4F20000814245
:103730000CD018E044F20000C4F20100814205D030
:1037400043F20040C4F2010081420CD18868072294
:10375000C0F201020240062A4FF0000008D0B2F584
:10376000803F08BF7047086840F0010008600020F3
:103770007047000070470000F0B581B00446006853
:10378000C5680669B10717D515F0020114D06FF0AE
:1037900002010161012121778069800704D0204660
:1037A000FFF7E8FF06E000BF204600F0C5F820461E
:1037B00000F0C4FA00202077700719D515F0040036
:1037C00016D020686FF00401016102212177806921
:1037D00010F4407F04D02046FFF7CCFF06E000BF86
:1037E000204600F0A9F8204600F0A8FA0020207733
:1037F000300717D515F0080014D020686FF00801C5
:10380000016104212177C069800703D02046FFF7BA
:10381000B1FF05E0204600F08FF8204600F08EFA58
:1038200000202077F00619D515F0100016D020687A
:103830006FF01001016108212177C06910F4407F09
:1038400004D02046FFF796FF06E000BF204600F0B8
:1038500073F8204600F072FA00202077F00718BFB6
:1038600015F0010004D1300605F080070BD412E0FA
:1038700020686FF001010161204600F061FA300616
:1038800005F0800707D537B120686FF0800101612E
:103890002046FFF761FDF00507D537B120686FF4CA
:1038A000807101612046FFF755FD700609D515F0BE
:1038B000400006D020686FF040010161204600F012
:1038C00075FAB0060CD515F0200009D021686FF00C
:1038D000200220460A6101B0BDE8F040FFF73EBD7E
:1038E00001B0F0BD80B586B0006842F60041C4F278
:1038F0000101884202D006B080BD00BF41F24C00F9
:10390000C4F20200016841F001010160006801A9F0
:1039100000F00100019001984FF4E0600190022056
:10392000CDE902000490012005904FF09040FEF791
:103930000BFB06B080BD0000704700002DE9F04190
:1039400090F83C30012B04BF0220BDE8F0814FEA23
:10395000B202052A00F26E81DFE812F00600500084
:10396000A200F4003001740103681D6A1A6AA3F111
:10397000804622F001021A621A465C6852F818CF9B
:103980008F68A6F59636D1F800E025F002054FEADB
:10399000B626072E45EA07050AD80127B74017F0D3
:1039A000E50F1FBFCF6825F00C0527F004073D4346
:1039B000072E0BD8012707FA06F616F0E50F1FBFF2
:1039C00024F44074D1E9056734433C434FF68C76C8
:1039D000CFF6FE760CEA060747EA0E075C609F61A9
:1039E0004F6809695F631D629F6947F008079F611F
:1039F0009F6927F004079F6161E100BF036843F2FC
:103A000000461D6A1A6AC4F2010622F010021A6208
:103A10001A465C6852F818EFB3428E68D1F800C0BD
:103A200025F0200545EA061505D042F60046C4F209
:103A30000106B34207D1CE686FF0400725F0C005FC
:103A400007EA06163543A3F18046A6F596364FEAF7
:103A5000B626072E0DD8012707FA06F616F0E50F51
:103A60001FBF24F44064D1E9056744EA860444EAB0
:103A7000870448F6FF46CFF6FF660EEA060747EAD8
:103A80000C275C609F614F6809699F631D629F6995
:103A900047F400679F619F6927F480679F610DE18C
:103AA000036843F200461D6A1A6AC4F2010622F452
:103AB00080721A621A465C6852F81CCFB3428E6854
:103AC000D1F800E025F4007545EA062505D042F658
:103AD0000046C4F20106B34207D1CE6840F2FF4768
:103AE000360225F44065BE433543A3F18046A6F572
:103AF00096364FEAB626072E0DD8012707FA06F6A6
:103B000016F0E50F1FBF24F44054D1E9056744EADD
:103B1000061444EA07144FF68C76CFF6FE760CEACC
:103B2000060747EA0E075C60DF614F680969DF63DB
:103B30001D62DF6947F00807DF61DF6927F00407CE
:103B4000DF61BCE00368D3F820C01A6AA3F18047A4
:103B500022F480521A621A46A7F596375D6852F829
:103B60001C8FD1F800E08E684FEAB727072F09D8DD
:103B70000124BC4014F0E50F1EBF4C6925F48045BC
:103B800045EA84152CF4005747EA063748F6FF4605
:103B9000CFF6FF6606EA080646EA0E265D60DE619D
:103BA0004E6809691E641F62DF6947F40067DF61C0
:103BB000DF6927F48067DF6180E000BF0368D3F826
:103BC00020C01A6AA3F1804722F480321A621A4692
:103BD000A7F596375D6852F8548FD1F800E08E68EB
:103BE0004FEAB727072F09D80124BC4014F0E50F8E
:103BF0001EBF4C6925F4803545EA04252CF40037B6
:103C000047EA06474FF68C76CFF6FE76033606EA8D
:103C1000080646EA0E065D605E654E6809699E65A7
:103C20001F625F6D47F008075F655F6D27F004074F
:103C30005F6544E00121002280F83C200846BDE891
:103C4000F08100BF0368D3F820C01A6AA3F180474F
:103C500022F480121A621A46A7F596375D6852F868
:103C6000548FD1F800E08E684FEAB727072F09D8A4
:103C70000124BC4014F0E50F1EBF4C6925F48025DB
:103C800045EA84252CF4001747EA065748F6FF4614
:103C9000CFF6FF6606F5407606EA080646EA0E26E7
:103CA0005D605E654E680969DE651F625F6D47F4A1
:103CB00000675F655F6D27F480675F6509021368C1
:103CC000194311600021002280F83C200846BDE81D
:103CD000F0810000002804BF0120704710B50446A1
:103CE00090F83D0028B9002084F83C00204600F000
:103CF00023F8022084F83D002068211D04F072FBA7
:103D0000012084F8480084F83E0084F83F0084F8DD
:103D1000400084F8410084F8420084F8430084F8AD
:103D2000440084F8450084F8460084F8470084F88D
:103D30003D00002010BD00007047000070470000EB
:103D4000006841F20001C4F20001884208BFFEF79A
:103D50000FBA7047B0B5044690F83C0001284FF008
:103D6000020008BFB0BD012584F83C5084F83D0036
:103D7000206804F0D7FB00284FF0010006D0002196
:103D800084F83D5084F83C10B0BD00BF2068C16885
:103D900021F04001C160C16821F48041C160002070
:103DA000002184F83D5084F83C10B0BD70470000FD
:103DB00010B5C8B10446C06F28B9002084F8780057
:103DC000204600F025F82420E0672068616A026838
:103DD00022F00102026011B1204604F017FF2046D4
:103DE00005F03CF8012801D1012010BD2168486888
:103DF00020F490404860886820F02A0088600868B5
:103E000040F0010220460A60BDE8104004F072BF95
:103E10002DE9F043A9B0044600202890CDE9260002
:103E2000CDE9240002A88821FCF72DFB206844F28C
:103E30000041C4F20001884240D044F60041C4F27F
:103E40000001884240F09F8040200824139002A87F
:103E50000294FEF7C9FA002818BFFDF7DDF941F218
:103E60005800C4F20200016841F4002101600068BA
:103E700000F400200190019841F24C00C4F20200CD
:103E8000016841F004010160006824A900F0040009
:103E9000019001984FF4406024900220259000206A
:103EA00026900320CDE9270440F60000C4F6000068
:103EB000FEF74AF829B0BDE8F08300BF04204FF0B8
:103EC0000208119002A8CDF80880FEF78DFA0028AC
:103ED00018BFFDF7A1F941F25800C4F202000168D1
:103EE00041F24C0741F4003101600068C4F202075E
:103EF00000F40030019001983868002640F001007D
:103F00003860386824A900F00100019001980C2065
:103F1000CDE92408072028904FF09040CDE926668F
:103F2000FEF712F841F6A005A7F57E60C2F2000583
:103F30004FF08009C5E900082846C5E90266C5E9D1
:103F40000496C5E906662E62FDF798FF002818BFA3
:103F5000FDF762F96567AC6241F6E805A7F6CC703B
:103F6000C2F200050221102285E847022846C5E971
:103F70000566C5E90766FDF781FF002818BFFDF754
:103F80004BF92567AC6229B0BDE8F08304F042FB31
:103F9000FEE7000010B5D0E90014084603F0EEFE7D
:103FA000206110BDC06800F0B7BE0000B0B5044687
:103FB00090F82C00012818BFB0BD207D012817D033
:103FC00003282BD002280ED1D4E90001002281F869
:103FD0002420042103F0FAFE2068B4F91810A28C02
:103FE00003F076FE08BB032584F82C50B0BD00BF5B
:103FF000D4E90001002281F824200321032503F0E5
:10400000E5FE2068B4F91610A28C03F061FE0028CA
:1040100018BF022584F82C50B0BD00BF6068012194
:1040200080F82410D4F81A100161022584F82C506D
:10403000B0BD000010B52DED048B0446006861682A
:104040000022B0EE608AB0EE409A81F8242003F09E
:10405000A1FE03F0D3FD2169B5EE408AF1EE10FA1E
:1040600014DD00EE100A9FED0F1AB8EEC00A80EEC4
:10407000010A0846B0EE481A79EE400A04F01AF830
:10408000042084F82D00BDEC048B10BD0846B0EE72
:10409000490A03F07DFF042084F82D00BDEC048B59
:1040A00010BD00BF83F922460123C18240F20131D5
:1040B00003758284818570470223018340F20141A8
:1040C000037582848185704710B5044600F054F86A
:1040D0000B281CBF002010BD204600F021F800284E
:1040E0004FF0000018BF10BD6085022084F8260044
:1040F000012010BD038D0B4323EA0202438D02858C
:10410000194341857047000080B5006803F042FE06
:10411000BDE8804003F066BD90F82D0070470000B8
:10412000008D7047006903F08BBF0000418D008D4A
:1041300041EA004070470000406800687047000096
:1041400040684068704700004068C06870470000E1
:104150004068006970470000808C7047B0F9160015
:1041600070470000B0F9180070470000006803F0C5
:1041700009BE0000408D704790F82700704700008E
:104180004068B0F91E0070474068D0F81A007047C8
:104190004068D0F816007047DDF800C080E80610CF
:1041A000002103610175C0F81610C0E9091180F8FB
:1041B0002C1070470A0C0323418340F20141037520
:1041C000828381857047000010B50446FFF7D4FF55
:1041D00038B92046FFF7CEFF18B92046FFF7A0FFF9
:1041E00010B1002010BD00BF012084F8260084F823
:1041F0002C0010BD10B50446FFF7BEFF18B92046CD
:10420000FFF7B8FF10B1012010BD00BF2046FFF737
:1042100087FF00284FF0010018BF10BDA16884F887
:10422000260084F82C00002081F8810010BD0000D9
:10423000B0B50446FFF7A0FF05462046FFF79AFFFA
:1042400000281CBF0020B0BD2046FFF769FF0028F2
:104250004FF0000018BFB0BDA5F10C01B1FA81F11B
:10426000B5FA85F249095209514002BF052084F888
:1042700026000120B0BD0000006803F0ADBD0000C5
:1042800046F634420114CFF6FF7251434BF21A62E4
:10429000CFF6FF7212FB0011CA0BB1F1404FBCBF49
:1042A00048F20002CFF6FF72B1F1804FA8BF47F687
:1042B000FF7291B2B1F5004F04BF48F20102CFF690
:1042C000FF72C0EA0240704710B50446084600F08D
:1042D000C3F810FB04F12214031403FB1211CA0BE0
:1042E000B1F1404FBCBF48F20002CFF6FF72B1F10E
:1042F000804FA8BF47F6FF7291B2B1F5004F10FB97
:1043000014F110FB24104FEAD03104BF48F201022F
:10431000CFF6FF72B0F1404FBCBF48F20001CFF6BC
:10432000FF71B0F1804FA8BF47F6FF7188B2B0F5BA
:10433000004F04BF48F20101CFF6FF71C2EA01400D
:1043400010BD000010B50446084600F085F821B203
:10435000021410FB14F302FB113110FB04F210FBEA
:1043600034204900C1EAE03010BD000080B50128CA
:1043700070DB4FF400520023B0F5001F98BF80227D
:1043800090FBF2F10133114401EBD17CA2EB6C0103
:10439000B1FA81F14FEA6C0E4FEA511CB2FA82F188
:1043A000490951EA0C0118BF0623D9B208BF724669
:1043B00005294DD890FBF2F10133114401EBD17185
:1043C0004FEA610EA2EB6101B1FA81F14FEA511C93
:1043D000B2FA82F1490951EA0C0118BF0623D9B299
:1043E00008BF7246052933D890FBF2F1013311441E
:1043F00001EBD1714FEA610EA2EB6101B1FA81F1DB
:104400004FEA511CB2FA82F1490951EA0C0118BF76
:104410000623D9B208BF7246052919D890FBF2F1DC
:104420000133114401EBD1714FEA610EA2EB61013E
:10443000B1FA81F14FEA511CB2FA82F1490951EA0D
:104440000C0118BF0623D9B208BF7246062997D3BC
:10445000704680BD002080BD81B20222880982EAB8
:104460009131DFE801F00331132100BF4BF2CA01A3
:10447000C0B2C0F6000131F8102080F0FF0031F822
:10448000101050424942C1EA004070474BF2CA0244
:10449000C1B2C0F6000232F8110081F0FF0132F81B
:1044A0001110C1EA004070474BF2CA02C0B2C0F618
:1044B000000280F0FF0132F8103032F8110059424A
:1044C000C1EA0040704700BFC0B24BF2CA0280F0A0
:1044D000FF01C0F6000232F8113032F810105842D5
:1044E000C1EA0040704700002DE9F047B1F80080B4
:1044F0008146B8F1000F55D0D9F80000C089804539
:1045000084BF0920BDE8F087887899F81E3089F8C3
:104510002100C87889F823000A7989F825204A798A
:1045200017189F4289F8272084BF0A20BDE8F0872A
:10453000C24201F106073DD14FF0000A0AF1060020
:10454000404584BF0920BDE8F087A8EB0A00023887
:10455000A9F81A00387889F8290000284FF00000DF
:1045600018BFBDE8F087B9F8182089F829006AB1AA
:10457000D9F8141099F82A30D9F800008B52B9F8FC
:1045800018204768023292B20923B8470020A9F8E0
:10459000180089F82A0089F81F0089F82200BDE870
:1045A000F08700BFB9F818200020002A89F82900F8
:1045B000DED1EBE7002600244FF0000A16E000BF32
:1045C000284602F02BF9D9F80C1001348855D9F897
:1045D0000C0099F82310805D99F827205044E6B22A
:1045E00011440237B1421FFA80FAA7D9D9F8040062
:1045F0003D8800EB8601284602F020F999F8230057
:10460000E1B28142DCD20220DDE700002DE9F04F6B
:1046100081B08246C07F9AF82210884266D1554602
:1046200035F8182F0020002AE87144D1514651F87E
:10463000140B092203689847D8B340F27061C2F2A4
:104640000001DAF8140009689AF82A2001609AF843
:1046500029000421AAF8181090424FF000018AF8AE
:10466000201026D08AF82A009AF821009AF82320F0
:104670008AF822009AF825009AF827308AF826004E
:10468000BAF81A008AF82420AAF81C00DAE9011006
:104690001A4492008AF82830FBF7C3FE9AF82320C8
:1046A0009AF82730DAF80C10DAF810001A44FBF701
:1046B00073FE2A88EAB1BAF81C00824200F2B78081
:1046C0009AF82490DAF81480B9F1000F5DD0DAF886
:1046D00008E0A9F1010008EB0203032809F0030C2C
:1046E0000AD20026BCF1000F32D14EE001308AF828
:1046F0001F0001B000F0F7B809F0FC0BAEF1100795
:104700000020002657F8102F083812887C6823F8FC
:1047100016202A88B96802322A80228803EB4604D0
:1047200062802A88043602322A800988FA68A180C9
:104730002988B34501F1020129801188E180298887
:1047400001F102022A80DDD11B1ABCF1000F1CD03E
:104750005EF82600BCF1010F00881880288800F15F
:1047600002022A8011D00EEB86004168BCF1020FD4
:1047700009885980298801F102022A8005D08068C1
:10478000008898802888821C2A809AF82600FD28B4
:104790004DD89AF82010814246D19AF8280000217D
:1047A00000288AF8201042D000EB090CDAF80860E3
:1047B000DAF81000494600BF56F8297094B23F68F5
:1047C00048F8047010F809703A444F1CFFB2BC4519
:1047D0002A802CD956F8274093B2246848F8034021
:1047E000C35D1A448B1CDFB2BC452A801FD956F822
:1047F000273094B21B6848F80430C35D1A44CB1CC0
:10480000DFB2BC452A8012D956F8273094B21B6813
:10481000043148F80430C35D5FFA81F91A44CC458D
:104820002A80C9D803E000BF481C8AF82000BAF8E3
:104830001C0091B281427FF65CAF9AF82600FE28F8
:104840003CD19AF82800C8B39AF82460DAF808E056
:10485000DAE9043700EB060C344600BF5EF82600A8
:1048600091B200687850985D0244601CC6B2B445AD
:104870002A8023D95EF8260091B200687850985DAE
:104880000244A01CC6B2B4452A8017D95EF826009F
:1048900091B200687850985D0244E01CC6B2B445FD
:1048A0002A800BD95EF8260091B200680434785053
:1048B000985DE6B20244B4452A80CFD8DAF81410E5
:1048C0009AF82A3092B28B52DAF80000BAF818201F
:1048D0004768023292B20923B8470020AAF81800AC
:1048E00001B000F000B830BCBDE8C08FF0B581B0B9
:1048F000028B002A4ED0044690F82600FE283BD1B9
:1049000094F82800C0B394F82450D4F808E000EBE1
:10491000050CD4E9043029465EF8256097B2366864
:10492000C6515D5D2A444D1CEDB2AC45228323D9AE
:104930005EF8256097B23668C6515D5D2A448D1CCD
:10494000EDB2AC45228317D95EF8256097B2366880
:10495000C6515D5D2A44CD1CEDB2AC4522830BD916
:104960005EF8256097B236680431C6515D5D2A4411
:10497000CDB2AC452283CFD8616994F82A3092B287
:104980008B522068228B4768023292B20923B847C3
:104990000020208301B0F0BD2DE9F04F85B04668BE
:1049A000824636F8023BBAF80C70026823F0FF0525
:1049B0000020B5F5807FA7F10207D1464FEAD30169
:1049C000AAF80C70CAF80460928929F80E0F08BF83
:1049D000C3F3C400B5F5807F08BF202120294FF024
:1049E000020B00F24381013B03F0070341F298758B
:1049F00003EB4303C2F2000505EB03150FFA87F83A
:104A0000541EDFE811F021002B007D00B500BB0033
:104A1000C100CD00D900DF00E700330133013301CD
:104A2000ED0033013301330133013301330133012D
:104A300033013301330133013301330133013301D6
:104A4000330133013301F9000420AAF80E00DAF82B
:104A50000800012101704FF0000B07E1DAF808307F
:104A60000020B8F1010FADF81000AAF80E00C0F256
:104A7000F98000254FF0000B36F8021B01F007000B
:104A8000012800F2E5804AF64C62C0F6000252F8B6
:104A900020C0A8F10207CDE902353DB221F00700A0
:104AA00001F03801324604AB0095E047BDF8101024
:104AB000039D7A1A2B060FFA82F808BFB8F1000F8F
:104AC00000F0CA80220400F0DF80029B00281870EA
:104AD000B9F8002018BF4FF0010B01320728A9F8E0
:104AE000002000F0BA800A2800F0B7800E44013C94
:104AF0000133B8F1000F05F10105BDDCADE000BFE9
:104B0000DAF808500020B8F1000FADF81200AAF84A
:104B10000E0000F0898000BF36F8021B01F007008C
:104B2000012800F28B804AF64462C0F6000252F877
:104B300020C027B221F0070001F038012A460DF10C
:104B400012030097E047002840F07C80BDF8120077
:104B5000B9F80010A8F1020801440544A9F80010B2
:104B60005FEA0841A4EB0004D6D14FF0000B7DE0D2
:104B70002846FFF73FFB834678E000BF2846FFF753
:104B800057FB4FF0000B71E02846FFF7F5FA0628B7
:104B900004BF2846FFF770FB4FF0000B66E000BF34
:104BA0002846FFF7E9FA002842D02846FFF740FBE5
:104BB0004FF0000B5AE000BF2846FFF785FA4FF090
:104BC000000B53E0284600214FF0000BFFF7EAF9F5
:104BD0004CE000BF2846FFF7DDF94FF0000B45E041
:104BE000DAF808701FFA88F022B231464B46009777
:104BF00000F082F9834639E0012811D841F2907122
:104C0000C2F2000151F82050F5B1DAF808701FFA2D
:104C100088F022B231464B460097A847834625E0EC
:104C20004FF00D0B22E000BF4FF0010B1EE000BF64
:104C30002846FFF7DFFA80F0010B17E04FF0010B79
:104C400014E000BF834611E04FF00D0B0EE000BFF3
:104C50004FF0010B0AE000BF83465FEA0B604FF0A4
:104C6000000003D1A9F800004FF0000BDAF80800AB
:104C7000BAF80E1000F801B0BAF80E000130AAF828
:104C80000E0005B000F003B84FF0080BEEE730BCA3
:104C9000BDE8C08F7047000070470000012202701D
:104CA0000022426041F20402CEF20002126800EBE0
:104CB000011082607047000080B541F20402CEF21C
:104CC000000200EB0111D2F800E08B684FF0000CFD
:104CD0005A4280F800C09E4538BFDA4372444368A8
:104CE000084640F80C2F9A4284BFD21A0260084648
:104CF00050F8143F934238BF026051F8100F9042B1
:104D000088BF0A6080BD000041F68C20C2F200001E
:104D10000068FFF731BA000000EB411000214FF0AE
:104D2000FF32C0E903124161C0E9071241627047D6
:104D300090ED030A90ED071A9FED102AB8EE411A84
:104D4000B8EE400A81EE021A80EE020A9FED0C2AAC
:104D50009FED0C3A21EE021A20EE030A31EE000A12
:104D6000B7EE001AB4EE410A9FED072AF1EE10FAF1
:104D7000C8BFB0EE410A20EE020A70478096984CF8
:104D800000007A440060EA460000C84290ED050A3F
:104D900090ED091A9FED102AB8EE411AB8EE400ABC
:104DA00081EE021A80EE020A9FED0C2A9FED0C3A6A
:104DB00021EE021A20EE030A30EE010AB7EE001AC5
:104DC000B4EE410A9FED072AF1EE10FAC8BFB0EE2B
:104DD000410A20EE020A70478096984C00007A44FF
:104DE0000060EA460000C842016A006900EE101A3D
:104DF0009FED161AB8EE400A80EE010A02EE100A84
:104E0000B8EE422A82EE011A9FED112A01319FED80
:104E1000113A20EE020A9FED102A08BFB0EE430AB5
:104E200021EE021A31EE001A013008BFB0EE401A2E
:104E3000B7EE000A9FED092AB4EE401AF1EE10FA1F
:104E4000C8BFB0EE401A21EE020A70478096984C17
:104E500000007A44000000000060EA460000C842FA
:104E60004EF6FC51CEF200010A6842F080720A60F0
:104E700041F20001CEF200010A682AB100224A6024
:104E80000A6842F001020A6000214FF0FF324162DD
:104E90000170C0E90111C0E90312C0E90511C0E9C0
:104EA0000712704741F20402CEF20002126800EBD2
:104EB000011082607047000041F20402CEF200024D
:104EC00000EB0111D2F800C08B685A429C4538BFF4
:104ED000DA4303786244CA6013B143681344436001
:104EE000084650F8143F934238BF026051F8100F43
:104EF000904288BF0A6070470220704740F20C5011
:104F0000C2F200000078002818BF00F001B8704716
:104F1000B0B540F20C55C2F20005287801280FD137
:104F2000688878B101386880A88810B1A8880138ED
:104F3000A880E888002808BFB0BDE8880138E8806C
:104F4000B0BD00BF03F02EFCFFF7A6FE40F2F80450
:104F5000C2F20004206804F10C018268904760608E
:104F600080B1214651F8080B0A220368984748B1DE
:104F70002046FFF711FD2068A168D0F804C0E2893F
:104F80000A23E04701206880A8880028CED1D0E716
:104F900041F68C20C2F200000068FFF715B900004E
:104FA00041F68C20C2F200000068FFF741B9000012
:104FB000002808BF70472DE9F04782B040F20C5737
:104FC0008046C2F200070020387040F2CC10C2F2D6
:104FD0000000B86000F030FD40F2BC30C2F20000CA
:104FE000FBF72AFF05F07EFA40F26419C2F20009CD
:104FF000484600F033F940F22C06C2F20006304673
:10500000FCF7ACF840F2404AC2F2000A40F2AC04AD
:1050100040F28435DAF80010C2F20004C2F2000552
:1050200020462A463346FBF76BFFFC6040F29014A3
:10503000C2F20004204600F011F940F2742040F260
:10504000FC22C2F20000C2F200022146334603F005
:1050500011F8DAF800004946324602F0A1FE28466F
:1050600004F0BAFB40F23810C2F2000000F0F6F88B
:1050700040F20C10C2F2000000F0F0F840F2743080
:10508000C2F2000001F012FB40F20C04C2F2000474
:10509000204602F0A5FD40F23040C2F20000006858
:1050A00007F11405C0E9025440F23430C2F20000A6
:1050B00001F0FCFA40F24430C2F2000000F084F843
:1050C00040F2E420C2F20000386101F09FFB0020B2
:1050D000FCF7C0F8DAF800004FF0010987F83890C3
:1050E00002F04CFEDAF800107862084602F046FE44
:1050F00040F23C42C2F2000241F29874000CDAF82D
:1051000000101368BE68C2F20004388520462A46A3
:105110000096FFF741F840F24441DAF80000C2F28D
:105120000001216202F032FE014620460022FEF715
:10513000BBFF07F13C00E060FFF792FEC8F80040BB
:10514000FFF7A8FD87F8009002B0BDE8F047704770
:1051500080B541F68C20C2F20000FFF729FFBDE8C0
:10516000804004F041BE000010B50446007818B13C
:105170000020208110BD00BF4FF6FF70814207D094
:1051800060896288431E03FB0211B1FBF0F060806E
:10519000204600F023F8208110BD0000002141804E
:1051A00070470000017819B1C08800B2704700BF95
:1051B00041884269891AB0F91020008B514300EBF5
:1051C000214000B2704700000178002908BFFFF7B6
:1051D000E5BF828800210181428070474188828931
:1051E000914284BF08207047C289914234BF002099
:1051F00000897047B0B50446B0F92200B0B1A26A88
:10520000E38C8A1A504340FA03F52046A16200F06D
:105210005FF8B4F914102844884205DCB4F916107C
:105220008842B8BF0846014608B2B0BD204600F02B
:105230004FF881B208B2B0BDB0F92200704700004B
:10524000C08C7047B0F9060070470000C08B7047F3
:10525000B0F9040070470000808B7047018C026831
:1052600041840021C0E9012181627047816070475B
:10527000418470470122C18402FA01F181847047A0
:10528000C1807047B0B5054601208840688347F665
:10529000FF700C46E98300FA01F1284600F016F889
:1052A00048F20100CFF6FF7000FA04F12846BDE88D
:1052B000B04000F009B8000081807047012281836E
:1052C00002FA01F10183704701617047C1607047C4
:1052D000B0B50246B0F90430B0F90600B2F9144096
:1052E000B2F916C003FB01FE80B1956800FB0153C3
:1052F0004843B3F1FF3F0BDD284044BF0123C8F210
:1053000000031946D36899420DDD11E000230FE038
:1053100019460028C8BF6FF00041002DD8BF1946BC
:10532000D368994204DC10698142B8BF01460B463C
:10533000908BD18B4EFA00F043FA01F10844A04261
:1053400004DD211A194420B29160B0BDBCEB00010C
:10535000D4BF002160460446194420B29160B0BD1C
:1053600081680023CA68D1F8161021FB0231CA17E0
:10537000B0F9003001EB1241C3EB214101EB117197
:1053800003EB11110180704700210180704700007C
:1053900010B52DED028B0446B0F9000000EE100AA6
:1053A000E068B8EEC08A04F003FA00EE100AB8EE26
:1053B000400A94ED011A28EE000A21EE000ABDEC25
:1053C000028B10BD10B50129044605D0A1B92046B5
:1053D00000F07EF90AE000BFB4F8600070B1013857
:1053E0000104A4F860001CBF002010BDE168204645
:1053F0008847012010BD00BF002010BD012010BD56
:10540000014690F8850028B1012201F17A0081F867
:105410008420704791F87D000228F5D101F13C0C01
:10542000B1F848009CE80C109062B1F84A0098620C
:10543000B1F84C00CCF82800012201F17A0081F883
:105440008420704702681047014690F883000028C6
:105450004FF000001CBF81F88300022091F88220E9
:10546000002A1EBF4030002281F8822091F884205B
:10547000002A1EBF00F58060002281F8842070475A
:105480004B6C024643F480604864012102F17A00CB
:1054900082F8831082F8851070470000F0B5B0F8EC
:1054A0007220B0F84E400DB209145143002605FB9E
:1054B00004F3A6EB4107A3EB410305FB147103EBD7
:1054C000D3764FEA660C01EBD17613F1020F4FEA67
:1054D000660419DC11F1020F34DC042780F87C70BB
:1054E000ACEB0407FE1707EB9637BF1407EB920EE1
:1054F0004942AEEB914C90F887105A4200290EEBCE
:10550000924357D0012178E0B1F1FF3F36DB01270C
:1055100080F87C70ACEB0407FE1707EB9637BF14DE
:1055200007EB920ECA1701EB92310EEBA14CD91783
:1055300090F8872003EB9131002AAEEBA1433FD0D6
:10554000022117E0002F41DD022180F87C10ACEB36
:105550000701CE1701EB9631891401EB920E5942E7
:1055600090F887200EEB9143002A03EB574C63D051
:105570004FF400318165012275E000BF002F3FDD4F
:10558000002380F87C303B1BDE1703EB96339B1423
:1055900003EB920E494290F87F20AEEB914CACEBBE
:1055A00057431AB990F88710002957D00221C0F24A
:1055B00001013EE0A0F85830A0F85AE0624652E0FF
:1055C000A0F858C0A0F85AE04CE000BF032380F8D0
:1055D0007C303B1BDE1703EB96339B1403EB920EE0
:1055E000CA1701EB92310EEBA14C90F887107A426A
:1055F0000CEB524331B34FF480318165022232E02B
:10560000052180F87C10ACEB0701CE1701EB963139
:10561000891401EB920ED91703EB9131AEEBA14344
:1056200090F887107A42A3EB524C89B10121C0F265
:1056300002018165002216E0A0F858C0A0F85A3097
:10564000724610E0A0F85830A0F85AC072460AE03E
:10565000A0F858E0A0F85A30624604E0A0F858E0FC
:10566000A0F85AC01A46B0F87070A0F85C202EEA74
:10567000EE752CEAEC7223EAE371012FA0F850508A
:10568000A0F85220A0F854101ED1B0F87430B0F930
:1056900062405E42B0F964E03746B0F966C0002C63
:1056A000C8BF1F463D443446A0F85050BEF1000F1D
:1056B000C8BF1C462244A0F85220BCF1000FC8BF4E
:1056C0001E463144A0F854104169BDE8F040084737
:1056D000416808478168084700000000000000009A
:1056E000EFF30980BFF36F8F154B1A681EF0100F90
:1056F00008BF20ED108A20E9F04F10602DE9090065
:105700004FF0500080F31188BFF34F8FBFF36F8FBE
:1057100005F006F94FF0000080F31188BDE809009C
:105720001968086800F00EB81EF0100F08BF00F0EE
:105730000EB880F30988BFF36F8F704700BF00BFBA
:10574000A805002030C8B0E8C04FFFF7EDBFB0ECAF
:10575000088AB0EC08CAFFF7ECBF00002DE9F04161
:1057600082B00446D0F8A00094F881104568002962
:1057700060D1206861690027264601900091C4E944
:105780002277C4F8907006F89D7F286A40F2555140
:105790008843286245F6BD10C0F60000206046F23E
:1057A0001500C0F600006061042084F89C0084F8B5
:1057B0007C00204600F0BAFCD4F8A00004F15608A2
:1057C00090F82E2028464146334605F0E1F8204661
:1057D00000F072FC45F60120C0F600003770206032
:1057E000204684F89C7084F87C7000F09FFCD4F80C
:1057F000A000414690F82E202846334605F0C8F810
:10580000204600F059FC04F1880207CA0909000982
:10581000C4F88800B4F856001209C4F88C100028A7
:10582000C4F8902004BF012084F881000198206012
:1058300000986061A86940F2555120F00800A86105
:10584000A86920F40060A861E86920F00800E86118
:10585000B4F898006863A863E863A86940F008009A
:10586000A861A86940F40060A861E86940F00800F8
:10587000E861286A08432862042084F87C0000203C
:1058800084F8850002B0BDE8F0810000D0E9222351
:10589000D0F89000C1E9002388607047B0B5D0F817
:1058A000A020D2E900235C6824F070045C6090F8CA
:1058B0007C30D2F88040D2F884C0052B6ED801220B
:1058C00002FA03F313F0060F1CD113F0180F33D0B4
:1058D000D0E9222348F2010E141B47F6FF729442CE
:1058E000CFF6FF7EB8BF22467245A3EB0C03D8BFAC
:1058F000724613F5004F0A8036DC48F20103A1F826
:1059000002E052E0D0F8882048F2010ED0F8905022
:10591000121B47F6FF73CFF6FF7E9A42A8BF1A46C6
:105920007245D8BF7246AC18ACEB040CBCF5004F06
:105930000A8021DB4B8038E0D0E9232548F2010EB4
:10594000131B47F6FF72CFF6FF7E9342A8BF1346A4
:105950007345D8BF7346EC18ACEB040CBCF5004F94
:105960004B8013DB0A8020E0B3F5004FA8BF47F659
:10597000FF734B8019E000BFF445A7BFA1F802C038
:10598000634648F20103A1F802E00EE0F44509DAAB
:1059900048F20102A1F800E007E000BF0A884B8846
:1059A00003E000BFA1F800C06246D1184942A0F848
:1059B0006220A0F86430A0F86610B0BD80B5D0F8C1
:1059C000A020D2E900C35A6822F070025A6090F811
:1059D0009D200F2A10D8DCF88020D0E9223E1A44FE
:1059E000C0F88820DCF884207244C0F88C2090F83D
:1059F0009D20013280F89D200020086080BD0000BD
:105A0000D0F8A020D2E900C35A6822F070025A6090
:105A100090F89D200F2A0BD8DCF88420D0F8903025
:105A20001A44C0F8902090F89D20013280F89D2003
:105A3000002008607047000010B5D0F8A02042F2A6
:105A4000100CD2E9001242F60C4E4B68CEF2040C58
:105A500023F004034B6004230B604B68C4F2010E77
:105A600023F020034B6020230B601368AEF10C047D
:105A700023F001031360DCF80030A24214D043F499
:105A80000053CCF800306FF0800313616FF4807323
:105A90001361D36840F2555443F08003D360136A16
:105AA0002343136219E000BF43F40063CCF80030D5
:105AB0006FF08003CEF804306FF48073CEF80430BA
:105AC000DEF8003040F2555443F08003CEF8003049
:105AD000DEF814302343CEF814308B684FF6C074D0
